{
	"data": {
		"bytecode": {
			"linkReferences": {},
			"object": "6080604052348015600f57600080fd5b50610d9d8061001f6000396000f3fe608060405234801561001057600080fd5b506004361061004c5760003560e01c8063560f3192146100515780638d9776721461006d578063aff0e3d61461009f578063c0a6026c146100bb575b600080fd5b61006b6004803603810190610066919061051b565b6100d7565b005b6100876004803603810190610082919061051b565b61026e565b60405161009693929190610602565b60405180910390f35b6100b960048036038101906100b49190610775565b61033d565b005b6100d560048036038101906100d0919061051b565b6103d6565b005b600080549050811061011e576040517f08c379a00000000000000000000000000000000000000000000000000000000081526004016101159061080a565b60405180910390fd5b60008190505b60016000805490506101369190610859565b81101561021357600060018261014c919061088d565b8154811061015d5761015c6108c1565b5b90600052602060002090600302016000828154811061017f5761017e6108c1565b5b906000526020600020906003020160008201548160000155600182018160010190816101ab9190610b12565b506002820160009054906101000a900460ff168160020160006101000a81548160ff02191690831515021790555090505080600082815481106101f1576101f06108c1565b5b9060005260206000209060030201600001819055508080600101915050610124565b50600080548061022657610225610bfa565b5b60019003818190600052602060002090600302016000808201600090556001820160006102539190610474565b6002820160006101000a81549060ff02191690555050905550565b6000818154811061027e57600080fd5b90600052602060002090600302016000915090508060000154908060010180546102a79061091f565b80601f01602080910402602001604051908101604052809291908181526020018280546102d39061091f565b80156103205780601f106102f557610100808354040283529160200191610320565b820191906000526020600020905b81548152906001019060200180831161030357829003601f168201915b5050505050908060020160009054906101000a900460ff16905083565b60006040518060600160405280600080549050815260200183815260200160001515815250905060008190806001815401808255809150506001900390600052602060002090600302016000909190919091506000820151816000015560208201518160010190816103af9190610c29565b5060408201518160020160006101000a81548160ff02191690831515021790555050505050565b60008082815481106103eb576103ea6108c1565b5b90600052602060002090600302019050600015158160020160009054906101000a900460ff16151514610453576040517f08c379a000000000000000000000000000000000000000000000000000000000815260040161044a90610d47565b60405180910390fd5b60018160020160006101000a81548160ff0219169083151502179055505050565b5080546104809061091f565b6000825580601f1061049257506104b1565b601f0160209004906000526020600020908101906104b091906104b4565b5b50565b5b808211156104cd5760008160009055506001016104b5565b5090565b6000604051905090565b600080fd5b600080fd5b6000819050919050565b6104f8816104e5565b811461050357600080fd5b50565b600081359050610515816104ef565b92915050565b600060208284031215610531576105306104db565b5b600061053f84828501610506565b91505092915050565b610551816104e5565b82525050565b600081519050919050565b600082825260208201905092915050565b60005b83811015610591578082015181840152602081019050610576565b60008484015250505050565b6000601f19601f8301169050919050565b60006105b982610557565b6105c38185610562565b93506105d3818560208601610573565b6105dc8161059d565b840191505092915050565b60008115159050919050565b6105fc816105e7565b82525050565b60006060820190506106176000830186610548565b818103602083015261062981856105ae565b905061063860408301846105f3565b949350505050565b600080fd5b600080fd5b7f4e487b7100000000000000000000000000000000000000000000000000000000600052604160045260246000fd5b6106828261059d565b810181811067ffffffffffffffff821117156106a1576106a061064a565b5b80604052505050565b60006106b46104d1565b90506106c08282610679565b919050565b600067ffffffffffffffff8211156106e0576106df61064a565b5b6106e98261059d565b9050602081019050919050565b82818337600083830152505050565b6000610718610713846106c5565b6106aa565b90508281526020810184848401111561073457610733610645565b5b61073f8482856106f6565b509392505050565b600082601f83011261075c5761075b610640565b5b813561076c848260208601610705565b91505092915050565b60006020828403121561078b5761078a6104db565b5b600082013567ffffffffffffffff8111156107a9576107a86104e0565b5b6107b584828501610747565b91505092915050565b7f696e646578206f7574206f6620626f756e640000000000000000000000000000600082015250565b60006107f4601283610562565b91506107ff826107be565b602082019050919050565b60006020820190508181036000830152610823816107e7565b9050919050565b7f4e487b7100000000000000000000000000000000000000000000000000000000600052601160045260246000fd5b6000610864826104e5565b915061086f836104e5565b92508282039050818111156108875761088661082a565b5b92915050565b6000610898826104e5565b91506108a3836104e5565b92508282019050808211156108bb576108ba61082a565b5b92915050565b7f4e487b7100000000000000000000000000000000000000000000000000000000600052603260045260246000fd5b7f4e487b7100000000000000000000000000000000000000000000000000000000600052602260045260246000fd5b6000600282049050600182168061093757607f821691505b60208210810361094a576109496108f0565b5b50919050565b60008154905061095f8161091f565b9050919050565b60008190508160005260206000209050919050565b60006020601f8301049050919050565b600082821b905092915050565b6000600883026109c87fffffffffffffffffffffffffffffffffffffffffffffffffffffffffffffffff8261098b565b6109d2868361098b565b95508019841693508086168417925050509392505050565b6000819050919050565b6000610a0f610a0a610a05846104e5565b6109ea565b6104e5565b9050919050565b6000819050919050565b610a29836109f4565b610a3d610a3582610a16565b848454610998565b825550505050565b600090565b610a52610a45565b610a5d818484610a20565b505050565b5b81811015610a8157610a76600082610a4a565b600181019050610a63565b5050565b601f821115610ac657610a9781610966565b610aa08461097b565b81016020851015610aaf578190505b610ac3610abb8561097b565b830182610a62565b50505b505050565b600082821c905092915050565b6000610ae960001984600802610acb565b1980831691505092915050565b6000610b028383610ad8565b9150826002028217905092915050565b818103610b20575050610bf8565b610b2982610950565b67ffffffffffffffff811115610b4257610b4161064a565b5b610b4c825461091f565b610b57828285610a85565b6000601f831160018114610b865760008415610b74578287015490505b610b7e8582610af6565b865550610bf1565b601f198416610b9487610966565b9650610b9f86610966565b60005b82811015610bc757848901548255600182019150600185019450602081019050610ba2565b86831015610be45784890154610be0601f891682610ad8565b8355505b6001600288020188555050505b5050505050505b565b7f4e487b7100000000000000000000000000000000000000000000000000000000600052603160045260246000fd5b610c3282610557565b67ffffffffffffffff811115610c4b57610c4a61064a565b5b610c55825461091f565b610c60828285610a85565b600060209050601f831160018114610c935760008415610c81578287015190505b610c8b8582610af6565b865550610cf3565b601f198416610ca186610966565b60005b82811015610cc957848901518255600182019150602085019450602081019050610ca4565b86831015610ce65784890151610ce2601f891682610ad8565b8355505b6001600288020188555050505b505050505050565b7f416c726561647920636f6d706c65746564000000000000000000000000000000600082015250565b6000610d31601183610562565b9150610d3c82610cfb565b602082019050919050565b60006020820190508181036000830152610d6081610d24565b905091905056fea264697066735822122056da543dba42bb7a008275abc0c1e5d06db627f79e126f7babb58b99e3dbb13b64736f6c634300081a0033",
			"opcodes": "PUSH1 0x80 PUSH1 0x40 MSTORE CALLVALUE DUP1 ISZERO PUSH1 0xF JUMPI PUSH1 0x0 DUP1 REVERT JUMPDEST POP PUSH2 0xD9D DUP1 PUSH2 0x1F PUSH1 0x0 CODECOPY PUSH1 0x0 RETURN INVALID PUSH1 0x80 PUSH1 0x40 MSTORE CALLVALUE DUP1 ISZERO PUSH2 0x10 JUMPI PUSH1 0x0 DUP1 REVERT JUMPDEST POP PUSH1 0x4 CALLDATASIZE LT PUSH2 0x4C JUMPI PUSH1 0x0 CALLDATALOAD PUSH1 0xE0 SHR DUP1 PUSH4 0x560F3192 EQ PUSH2 0x51 JUMPI DUP1 PUSH4 0x8D977672 EQ PUSH2 0x6D JUMPI DUP1 PUSH4 0xAFF0E3D6 EQ PUSH2 0x9F JUMPI DUP1 PUSH4 0xC0A6026C EQ PUSH2 0xBB JUMPI JUMPDEST PUSH1 0x0 DUP1 REVERT JUMPDEST PUSH2 0x6B PUSH1 0x4 DUP1 CALLDATASIZE SUB DUP2 ADD SWAP1 PUSH2 0x66 SWAP2 SWAP1 PUSH2 0x51B JUMP JUMPDEST PUSH2 0xD7 JUMP JUMPDEST STOP JUMPDEST PUSH2 0x87 PUSH1 0x4 DUP1 CALLDATASIZE SUB DUP2 ADD SWAP1 PUSH2 0x82 SWAP2 SWAP1 PUSH2 0x51B JUMP JUMPDEST PUSH2 0x26E JUMP JUMPDEST PUSH1 0x40 MLOAD PUSH2 0x96 SWAP4 SWAP3 SWAP2 SWAP1 PUSH2 0x602 JUMP JUMPDEST PUSH1 0x40 MLOAD DUP1 SWAP2 SUB SWAP1 RETURN JUMPDEST PUSH2 0xB9 PUSH1 0x4 DUP1 CALLDATASIZE SUB DUP2 ADD SWAP1 PUSH2 0xB4 SWAP2 SWAP1 PUSH2 0x775 JUMP JUMPDEST PUSH2 0x33D JUMP JUMPDEST STOP JUMPDEST PUSH2 0xD5 PUSH1 0x4 DUP1 CALLDATASIZE SUB DUP2 ADD SWAP1 PUSH2 0xD0 SWAP2 SWAP1 PUSH2 0x51B JUMP JUMPDEST PUSH2 0x3D6 JUMP JUMPDEST STOP JUMPDEST PUSH1 0x0 DUP1 SLOAD SWAP1 POP DUP2 LT PUSH2 0x11E JUMPI PUSH1 0x40 MLOAD PUSH32 0x8C379A000000000000000000000000000000000000000000000000000000000 DUP2 MSTORE PUSH1 0x4 ADD PUSH2 0x115 SWAP1 PUSH2 0x80A JUMP JUMPDEST PUSH1 0x40 MLOAD DUP1 SWAP2 SUB SWAP1 REVERT JUMPDEST PUSH1 0x0 DUP2 SWAP1 POP JUMPDEST PUSH1 0x1 PUSH1 0x0 DUP1 SLOAD SWAP1 POP PUSH2 0x136 SWAP2 SWAP1 PUSH2 0x859 JUMP JUMPDEST DUP2 LT ISZERO PUSH2 0x213 JUMPI PUSH1 0x0 PUSH1 0x1 DUP3 PUSH2 0x14C SWAP2 SWAP1 PUSH2 0x88D JUMP JUMPDEST DUP2 SLOAD DUP2 LT PUSH2 0x15D JUMPI PUSH2 0x15C PUSH2 0x8C1 JUMP JUMPDEST JUMPDEST SWAP1 PUSH1 0x0 MSTORE PUSH1 0x20 PUSH1 0x0 KECCAK256 SWAP1 PUSH1 0x3 MUL ADD PUSH1 0x0 DUP3 DUP2 SLOAD DUP2 LT PUSH2 0x17F JUMPI PUSH2 0x17E PUSH2 0x8C1 JUMP JUMPDEST JUMPDEST SWAP1 PUSH1 0x0 MSTORE PUSH1 0x20 PUSH1 0x0 KECCAK256 SWAP1 PUSH1 0x3 MUL ADD PUSH1 0x0 DUP3 ADD SLOAD DUP2 PUSH1 0x0 ADD SSTORE PUSH1 0x1 DUP3 ADD DUP2 PUSH1 0x1 ADD SWAP1 DUP2 PUSH2 0x1AB SWAP2 SWAP1 PUSH2 0xB12 JUMP JUMPDEST POP PUSH1 0x2 DUP3 ADD PUSH1 0x0 SWAP1 SLOAD SWAP1 PUSH2 0x100 EXP SWAP1 DIV PUSH1 0xFF AND DUP2 PUSH1 0x2 ADD PUSH1 0x0 PUSH2 0x100 EXP DUP2 SLOAD DUP2 PUSH1 0xFF MUL NOT AND SWAP1 DUP4 ISZERO ISZERO MUL OR SWAP1 SSTORE POP SWAP1 POP POP DUP1 PUSH1 0x0 DUP3 DUP2 SLOAD DUP2 LT PUSH2 0x1F1 JUMPI PUSH2 0x1F0 PUSH2 0x8C1 JUMP JUMPDEST JUMPDEST SWAP1 PUSH1 0x0 MSTORE PUSH1 0x20 PUSH1 0x0 KECCAK256 SWAP1 PUSH1 0x3 MUL ADD PUSH1 0x0 ADD DUP2 SWAP1 SSTORE POP DUP1 DUP1 PUSH1 0x1 ADD SWAP2 POP POP PUSH2 0x124 JUMP JUMPDEST POP PUSH1 0x0 DUP1 SLOAD DUP1 PUSH2 0x226 JUMPI PUSH2 0x225 PUSH2 0xBFA JUMP JUMPDEST JUMPDEST PUSH1 0x1 SWAP1 SUB DUP2 DUP2 SWAP1 PUSH1 0x0 MSTORE PUSH1 0x20 PUSH1 0x0 KECCAK256 SWAP1 PUSH1 0x3 MUL ADD PUSH1 0x0 DUP1 DUP3 ADD PUSH1 0x0 SWAP1 SSTORE PUSH1 0x1 DUP3 ADD PUSH1 0x0 PUSH2 0x253 SWAP2 SWAP1 PUSH2 0x474 JUMP JUMPDEST PUSH1 0x2 DUP3 ADD PUSH1 0x0 PUSH2 0x100 EXP DUP2 SLOAD SWAP1 PUSH1 0xFF MUL NOT AND SWAP1 SSTORE POP POP SWAP1 SSTORE POP JUMP JUMPDEST PUSH1 0x0 DUP2 DUP2 SLOAD DUP2 LT PUSH2 0x27E JUMPI PUSH1 0x0 DUP1 REVERT JUMPDEST SWAP1 PUSH1 0x0 MSTORE PUSH1 0x20 PUSH1 0x0 KECCAK256 SWAP1 PUSH1 0x3 MUL ADD PUSH1 0x0 SWAP2 POP SWAP1 POP DUP1 PUSH1 0x0 ADD SLOAD SWAP1 DUP1 PUSH1 0x1 ADD DUP1 SLOAD PUSH2 0x2A7 SWAP1 PUSH2 0x91F JUMP JUMPDEST DUP1 PUSH1 0x1F ADD PUSH1 0x20 DUP1 SWAP2 DIV MUL PUSH1 0x20 ADD PUSH1 0x40 MLOAD SWAP1 DUP2 ADD PUSH1 0x40 MSTORE DUP1 SWAP3 SWAP2 SWAP1 DUP2 DUP2 MSTORE PUSH1 0x20 ADD DUP3 DUP1 SLOAD PUSH2 0x2D3 SWAP1 PUSH2 0x91F JUMP JUMPDEST DUP1 ISZERO PUSH2 0x320 JUMPI DUP1 PUSH1 0x1F LT PUSH2 0x2F5 JUMPI PUSH2 0x100 DUP1 DUP4 SLOAD DIV MUL DUP4 MSTORE SWAP2 PUSH1 0x20 ADD SWAP2 PUSH2 0x320 JUMP JUMPDEST DUP3 ADD SWAP2 SWAP1 PUSH1 0x0 MSTORE PUSH1 0x20 PUSH1 0x0 KECCAK256 SWAP1 JUMPDEST DUP2 SLOAD DUP2 MSTORE SWAP1 PUSH1 0x1 ADD SWAP1 PUSH1 0x20 ADD DUP1 DUP4 GT PUSH2 0x303 JUMPI DUP3 SWAP1 SUB PUSH1 0x1F AND DUP3 ADD SWAP2 JUMPDEST POP POP POP POP POP SWAP1 DUP1 PUSH1 0x2 ADD PUSH1 0x0 SWAP1 SLOAD SWAP1 PUSH2 0x100 EXP SWAP1 DIV PUSH1 0xFF AND SWAP1 POP DUP4 JUMP JUMPDEST PUSH1 0x0 PUSH1 0x40 MLOAD DUP1 PUSH1 0x60 ADD PUSH1 0x40 MSTORE DUP1 PUSH1 0x0 DUP1 SLOAD SWAP1 POP DUP2 MSTORE PUSH1 0x20 ADD DUP4 DUP2 MSTORE PUSH1 0x20 ADD PUSH1 0x0 ISZERO ISZERO DUP2 MSTORE POP SWAP1 POP PUSH1 0x0 DUP2 SWAP1 DUP1 PUSH1 0x1 DUP2 SLOAD ADD DUP1 DUP3 SSTORE DUP1 SWAP2 POP POP PUSH1 0x1 SWAP1 SUB SWAP1 PUSH1 0x0 MSTORE PUSH1 0x20 PUSH1 0x0 KECCAK256 SWAP1 PUSH1 0x3 MUL ADD PUSH1 0x0 SWAP1 SWAP2 SWAP1 SWAP2 SWAP1 SWAP2 POP PUSH1 0x0 DUP3 ADD MLOAD DUP2 PUSH1 0x0 ADD SSTORE PUSH1 0x20 DUP3 ADD MLOAD DUP2 PUSH1 0x1 ADD SWAP1 DUP2 PUSH2 0x3AF SWAP2 SWAP1 PUSH2 0xC29 JUMP JUMPDEST POP PUSH1 0x40 DUP3 ADD MLOAD DUP2 PUSH1 0x2 ADD PUSH1 0x0 PUSH2 0x100 EXP DUP2 SLOAD DUP2 PUSH1 0xFF MUL NOT AND SWAP1 DUP4 ISZERO ISZERO MUL OR SWAP1 SSTORE POP POP POP POP POP JUMP JUMPDEST PUSH1 0x0 DUP1 DUP3 DUP2 SLOAD DUP2 LT PUSH2 0x3EB JUMPI PUSH2 0x3EA PUSH2 0x8C1 JUMP JUMPDEST JUMPDEST SWAP1 PUSH1 0x0 MSTORE PUSH1 0x20 PUSH1 0x0 KECCAK256 SWAP1 PUSH1 0x3 MUL ADD SWAP1 POP PUSH1 0x0 ISZERO ISZERO DUP2 PUSH1 0x2 ADD PUSH1 0x0 SWAP1 SLOAD SWAP1 PUSH2 0x100 EXP SWAP1 DIV PUSH1 0xFF AND ISZERO ISZERO EQ PUSH2 0x453 JUMPI PUSH1 0x40 MLOAD PUSH32 0x8C379A000000000000000000000000000000000000000000000000000000000 DUP2 MSTORE PUSH1 0x4 ADD PUSH2 0x44A SWAP1 PUSH2 0xD47 JUMP JUMPDEST PUSH1 0x40 MLOAD DUP1 SWAP2 SUB SWAP1 REVERT JUMPDEST PUSH1 0x1 DUP2 PUSH1 0x2 ADD PUSH1 0x0 PUSH2 0x100 EXP DUP2 SLOAD DUP2 PUSH1 0xFF MUL NOT AND SWAP1 DUP4 ISZERO ISZERO MUL OR SWAP1 SSTORE POP POP POP JUMP JUMPDEST POP DUP1 SLOAD PUSH2 0x480 SWAP1 PUSH2 0x91F JUMP JUMPDEST PUSH1 0x0 DUP3 SSTORE DUP1 PUSH1 0x1F LT PUSH2 0x492 JUMPI POP PUSH2 0x4B1 JUMP JUMPDEST PUSH1 0x1F ADD PUSH1 0x20 SWAP1 DIV SWAP1 PUSH1 0x0 MSTORE PUSH1 0x20 PUSH1 0x0 KECCAK256 SWAP1 DUP2 ADD SWAP1 PUSH2 0x4B0 SWAP2 SWAP1 PUSH2 0x4B4 JUMP JUMPDEST JUMPDEST POP JUMP JUMPDEST JUMPDEST DUP1 DUP3 GT ISZERO PUSH2 0x4CD JUMPI PUSH1 0x0 DUP2 PUSH1 0x0 SWAP1 SSTORE POP PUSH1 0x1 ADD PUSH2 0x4B5 JUMP JUMPDEST POP SWAP1 JUMP JUMPDEST PUSH1 0x0 PUSH1 0x40 MLOAD SWAP1 POP SWAP1 JUMP JUMPDEST PUSH1 0x0 DUP1 REVERT JUMPDEST PUSH1 0x0 DUP1 REVERT JUMPDEST PUSH1 0x0 DUP2 SWAP1 POP SWAP2 SWAP1 POP JUMP JUMPDEST PUSH2 0x4F8 DUP2 PUSH2 0x4E5 JUMP JUMPDEST DUP2 EQ PUSH2 0x503 JUMPI PUSH1 0x0 DUP1 REVERT JUMPDEST POP JUMP JUMPDEST PUSH1 0x0 DUP2 CALLDATALOAD SWAP1 POP PUSH2 0x515 DUP2 PUSH2 0x4EF JUMP JUMPDEST SWAP3 SWAP2 POP POP JUMP JUMPDEST PUSH1 0x0 PUSH1 0x20 DUP3 DUP5 SUB SLT ISZERO PUSH2 0x531 JUMPI PUSH2 0x530 PUSH2 0x4DB JUMP JUMPDEST JUMPDEST PUSH1 0x0 PUSH2 0x53F DUP5 DUP3 DUP6 ADD PUSH2 0x506 JUMP JUMPDEST SWAP2 POP POP SWAP3 SWAP2 POP POP JUMP JUMPDEST PUSH2 0x551 DUP2 PUSH2 0x4E5 JUMP JUMPDEST DUP3 MSTORE POP POP JUMP JUMPDEST PUSH1 0x0 DUP2 MLOAD SWAP1 POP SWAP2 SWAP1 POP JUMP JUMPDEST PUSH1 0x0 DUP3 DUP3 MSTORE PUSH1 0x20 DUP3 ADD SWAP1 POP SWAP3 SWAP2 POP POP JUMP JUMPDEST PUSH1 0x0 JUMPDEST DUP4 DUP2 LT ISZERO PUSH2 0x591 JUMPI DUP1 DUP3 ADD MLOAD DUP2 DUP5 ADD MSTORE PUSH1 0x20 DUP2 ADD SWAP1 POP PUSH2 0x576 JUMP JUMPDEST PUSH1 0x0 DUP5 DUP5 ADD MSTORE POP POP POP POP JUMP JUMPDEST PUSH1 0x0 PUSH1 0x1F NOT PUSH1 0x1F DUP4 ADD AND SWAP1 POP SWAP2 SWAP1 POP JUMP JUMPDEST PUSH1 0x0 PUSH2 0x5B9 DUP3 PUSH2 0x557 JUMP JUMPDEST PUSH2 0x5C3 DUP2 DUP6 PUSH2 0x562 JUMP JUMPDEST SWAP4 POP PUSH2 0x5D3 DUP2 DUP6 PUSH1 0x20 DUP7 ADD PUSH2 0x573 JUMP JUMPDEST PUSH2 0x5DC DUP2 PUSH2 0x59D JUMP JUMPDEST DUP5 ADD SWAP2 POP POP SWAP3 SWAP2 POP POP JUMP JUMPDEST PUSH1 0x0 DUP2 ISZERO ISZERO SWAP1 POP SWAP2 SWAP1 POP JUMP JUMPDEST PUSH2 0x5FC DUP2 PUSH2 0x5E7 JUMP JUMPDEST DUP3 MSTORE POP POP JUMP JUMPDEST PUSH1 0x0 PUSH1 0x60 DUP3 ADD SWAP1 POP PUSH2 0x617 PUSH1 0x0 DUP4 ADD DUP7 PUSH2 0x548 JUMP JUMPDEST DUP2 DUP2 SUB PUSH1 0x20 DUP4 ADD MSTORE PUSH2 0x629 DUP2 DUP6 PUSH2 0x5AE JUMP JUMPDEST SWAP1 POP PUSH2 0x638 PUSH1 0x40 DUP4 ADD DUP5 PUSH2 0x5F3 JUMP JUMPDEST SWAP5 SWAP4 POP POP POP POP JUMP JUMPDEST PUSH1 0x0 DUP1 REVERT JUMPDEST PUSH1 0x0 DUP1 REVERT JUMPDEST PUSH32 0x4E487B7100000000000000000000000000000000000000000000000000000000 PUSH1 0x0 MSTORE PUSH1 0x41 PUSH1 0x4 MSTORE PUSH1 0x24 PUSH1 0x0 REVERT JUMPDEST PUSH2 0x682 DUP3 PUSH2 0x59D JUMP JUMPDEST DUP2 ADD DUP2 DUP2 LT PUSH8 0xFFFFFFFFFFFFFFFF DUP3 GT OR ISZERO PUSH2 0x6A1 JUMPI PUSH2 0x6A0 PUSH2 0x64A JUMP JUMPDEST JUMPDEST DUP1 PUSH1 0x40 MSTORE POP POP POP JUMP JUMPDEST PUSH1 0x0 PUSH2 0x6B4 PUSH2 0x4D1 JUMP JUMPDEST SWAP1 POP PUSH2 0x6C0 DUP3 DUP3 PUSH2 0x679 JUMP JUMPDEST SWAP2 SWAP1 POP JUMP JUMPDEST PUSH1 0x0 PUSH8 0xFFFFFFFFFFFFFFFF DUP3 GT ISZERO PUSH2 0x6E0 JUMPI PUSH2 0x6DF PUSH2 0x64A JUMP JUMPDEST JUMPDEST PUSH2 0x6E9 DUP3 PUSH2 0x59D JUMP JUMPDEST SWAP1 POP PUSH1 0x20 DUP2 ADD SWAP1 POP SWAP2 SWAP1 POP JUMP JUMPDEST DUP3 DUP2 DUP4 CALLDATACOPY PUSH1 0x0 DUP4 DUP4 ADD MSTORE POP POP POP JUMP JUMPDEST PUSH1 0x0 PUSH2 0x718 PUSH2 0x713 DUP5 PUSH2 0x6C5 JUMP JUMPDEST PUSH2 0x6AA JUMP JUMPDEST SWAP1 POP DUP3 DUP2 MSTORE PUSH1 0x20 DUP2 ADD DUP5 DUP5 DUP5 ADD GT ISZERO PUSH2 0x734 JUMPI PUSH2 0x733 PUSH2 0x645 JUMP JUMPDEST JUMPDEST PUSH2 0x73F DUP5 DUP3 DUP6 PUSH2 0x6F6 JUMP JUMPDEST POP SWAP4 SWAP3 POP POP POP JUMP JUMPDEST PUSH1 0x0 DUP3 PUSH1 0x1F DUP4 ADD SLT PUSH2 0x75C JUMPI PUSH2 0x75B PUSH2 0x640 JUMP JUMPDEST JUMPDEST DUP2 CALLDATALOAD PUSH2 0x76C DUP5 DUP3 PUSH1 0x20 DUP7 ADD PUSH2 0x705 JUMP JUMPDEST SWAP2 POP POP SWAP3 SWAP2 POP POP JUMP JUMPDEST PUSH1 0x0 PUSH1 0x20 DUP3 DUP5 SUB SLT ISZERO PUSH2 0x78B JUMPI PUSH2 0x78A PUSH2 0x4DB JUMP JUMPDEST JUMPDEST PUSH1 0x0 DUP3 ADD CALLDATALOAD PUSH8 0xFFFFFFFFFFFFFFFF DUP2 GT ISZERO PUSH2 0x7A9 JUMPI PUSH2 0x7A8 PUSH2 0x4E0 JUMP JUMPDEST JUMPDEST PUSH2 0x7B5 DUP5 DUP3 DUP6 ADD PUSH2 0x747 JUMP JUMPDEST SWAP2 POP POP SWAP3 SWAP2 POP POP JUMP JUMPDEST PUSH32 0x696E646578206F7574206F6620626F756E640000000000000000000000000000 PUSH1 0x0 DUP3 ADD MSTORE POP JUMP JUMPDEST PUSH1 0x0 PUSH2 0x7F4 PUSH1 0x12 DUP4 PUSH2 0x562 JUMP JUMPDEST SWAP2 POP PUSH2 0x7FF DUP3 PUSH2 0x7BE JUMP JUMPDEST PUSH1 0x20 DUP3 ADD SWAP1 POP SWAP2 SWAP1 POP JUMP JUMPDEST PUSH1 0x0 PUSH1 0x20 DUP3 ADD SWAP1 POP DUP2 DUP2 SUB PUSH1 0x0 DUP4 ADD MSTORE PUSH2 0x823 DUP2 PUSH2 0x7E7 JUMP JUMPDEST SWAP1 POP SWAP2 SWAP1 POP JUMP JUMPDEST PUSH32 0x4E487B7100000000000000000000000000000000000000000000000000000000 PUSH1 0x0 MSTORE PUSH1 0x11 PUSH1 0x4 MSTORE PUSH1 0x24 PUSH1 0x0 REVERT JUMPDEST PUSH1 0x0 PUSH2 0x864 DUP3 PUSH2 0x4E5 JUMP JUMPDEST SWAP2 POP PUSH2 0x86F DUP4 PUSH2 0x4E5 JUMP JUMPDEST SWAP3 POP DUP3 DUP3 SUB SWAP1 POP DUP2 DUP2 GT ISZERO PUSH2 0x887 JUMPI PUSH2 0x886 PUSH2 0x82A JUMP JUMPDEST JUMPDEST SWAP3 SWAP2 POP POP JUMP JUMPDEST PUSH1 0x0 PUSH2 0x898 DUP3 PUSH2 0x4E5 JUMP JUMPDEST SWAP2 POP PUSH2 0x8A3 DUP4 PUSH2 0x4E5 JUMP JUMPDEST SWAP3 POP DUP3 DUP3 ADD SWAP1 POP DUP1 DUP3 GT ISZERO PUSH2 0x8BB JUMPI PUSH2 0x8BA PUSH2 0x82A JUMP JUMPDEST JUMPDEST SWAP3 SWAP2 POP POP JUMP JUMPDEST PUSH32 0x4E487B7100000000000000000000000000000000000000000000000000000000 PUSH1 0x0 MSTORE PUSH1 0x32 PUSH1 0x4 MSTORE PUSH1 0x24 PUSH1 0x0 REVERT JUMPDEST PUSH32 0x4E487B7100000000000000000000000000000000000000000000000000000000 PUSH1 0x0 MSTORE PUSH1 0x22 PUSH1 0x4 MSTORE PUSH1 0x24 PUSH1 0x0 REVERT JUMPDEST PUSH1 0x0 PUSH1 0x2 DUP3 DIV SWAP1 POP PUSH1 0x1 DUP3 AND DUP1 PUSH2 0x937 JUMPI PUSH1 0x7F DUP3 AND SWAP2 POP JUMPDEST PUSH1 0x20 DUP3 LT DUP2 SUB PUSH2 0x94A JUMPI PUSH2 0x949 PUSH2 0x8F0 JUMP JUMPDEST JUMPDEST POP SWAP2 SWAP1 POP JUMP JUMPDEST PUSH1 0x0 DUP2 SLOAD SWAP1 POP PUSH2 0x95F DUP2 PUSH2 0x91F JUMP JUMPDEST SWAP1 POP SWAP2 SWAP1 POP JUMP JUMPDEST PUSH1 0x0 DUP2 SWAP1 POP DUP2 PUSH1 0x0 MSTORE PUSH1 0x20 PUSH1 0x0 KECCAK256 SWAP1 POP SWAP2 SWAP1 POP JUMP JUMPDEST PUSH1 0x0 PUSH1 0x20 PUSH1 0x1F DUP4 ADD DIV SWAP1 POP SWAP2 SWAP1 POP JUMP JUMPDEST PUSH1 0x0 DUP3 DUP3 SHL SWAP1 POP SWAP3 SWAP2 POP POP JUMP JUMPDEST PUSH1 0x0 PUSH1 0x8 DUP4 MUL PUSH2 0x9C8 PUSH32 0xFFFFFFFFFFFFFFFFFFFFFFFFFFFFFFFFFFFFFFFFFFFFFFFFFFFFFFFFFFFFFFFF DUP3 PUSH2 0x98B JUMP JUMPDEST PUSH2 0x9D2 DUP7 DUP4 PUSH2 0x98B JUMP JUMPDEST SWAP6 POP DUP1 NOT DUP5 AND SWAP4 POP DUP1 DUP7 AND DUP5 OR SWAP3 POP POP POP SWAP4 SWAP3 POP POP POP JUMP JUMPDEST PUSH1 0x0 DUP2 SWAP1 POP SWAP2 SWAP1 POP JUMP JUMPDEST PUSH1 0x0 PUSH2 0xA0F PUSH2 0xA0A PUSH2 0xA05 DUP5 PUSH2 0x4E5 JUMP JUMPDEST PUSH2 0x9EA JUMP JUMPDEST PUSH2 0x4E5 JUMP JUMPDEST SWAP1 POP SWAP2 SWAP1 POP JUMP JUMPDEST PUSH1 0x0 DUP2 SWAP1 POP SWAP2 SWAP1 POP JUMP JUMPDEST PUSH2 0xA29 DUP4 PUSH2 0x9F4 JUMP JUMPDEST PUSH2 0xA3D PUSH2 0xA35 DUP3 PUSH2 0xA16 JUMP JUMPDEST DUP5 DUP5 SLOAD PUSH2 0x998 JUMP JUMPDEST DUP3 SSTORE POP POP POP POP JUMP JUMPDEST PUSH1 0x0 SWAP1 JUMP JUMPDEST PUSH2 0xA52 PUSH2 0xA45 JUMP JUMPDEST PUSH2 0xA5D DUP2 DUP5 DUP5 PUSH2 0xA20 JUMP JUMPDEST POP POP POP JUMP JUMPDEST JUMPDEST DUP2 DUP2 LT ISZERO PUSH2 0xA81 JUMPI PUSH2 0xA76 PUSH1 0x0 DUP3 PUSH2 0xA4A JUMP JUMPDEST PUSH1 0x1 DUP2 ADD SWAP1 POP PUSH2 0xA63 JUMP JUMPDEST POP POP JUMP JUMPDEST PUSH1 0x1F DUP3 GT ISZERO PUSH2 0xAC6 JUMPI PUSH2 0xA97 DUP2 PUSH2 0x966 JUMP JUMPDEST PUSH2 0xAA0 DUP5 PUSH2 0x97B JUMP JUMPDEST DUP2 ADD PUSH1 0x20 DUP6 LT ISZERO PUSH2 0xAAF JUMPI DUP2 SWAP1 POP JUMPDEST PUSH2 0xAC3 PUSH2 0xABB DUP6 PUSH2 0x97B JUMP JUMPDEST DUP4 ADD DUP3 PUSH2 0xA62 JUMP JUMPDEST POP POP JUMPDEST POP POP POP JUMP JUMPDEST PUSH1 0x0 DUP3 DUP3 SHR SWAP1 POP SWAP3 SWAP2 POP POP JUMP JUMPDEST PUSH1 0x0 PUSH2 0xAE9 PUSH1 0x0 NOT DUP5 PUSH1 0x8 MUL PUSH2 0xACB JUMP JUMPDEST NOT DUP1 DUP4 AND SWAP2 POP POP SWAP3 SWAP2 POP POP JUMP JUMPDEST PUSH1 0x0 PUSH2 0xB02 DUP4 DUP4 PUSH2 0xAD8 JUMP JUMPDEST SWAP2 POP DUP3 PUSH1 0x2 MUL DUP3 OR SWAP1 POP SWAP3 SWAP2 POP POP JUMP JUMPDEST DUP2 DUP2 SUB PUSH2 0xB20 JUMPI POP POP PUSH2 0xBF8 JUMP JUMPDEST PUSH2 0xB29 DUP3 PUSH2 0x950 JUMP JUMPDEST PUSH8 0xFFFFFFFFFFFFFFFF DUP2 GT ISZERO PUSH2 0xB42 JUMPI PUSH2 0xB41 PUSH2 0x64A JUMP JUMPDEST JUMPDEST PUSH2 0xB4C DUP3 SLOAD PUSH2 0x91F JUMP JUMPDEST PUSH2 0xB57 DUP3 DUP3 DUP6 PUSH2 0xA85 JUMP JUMPDEST PUSH1 0x0 PUSH1 0x1F DUP4 GT PUSH1 0x1 DUP2 EQ PUSH2 0xB86 JUMPI PUSH1 0x0 DUP5 ISZERO PUSH2 0xB74 JUMPI DUP3 DUP8 ADD SLOAD SWAP1 POP JUMPDEST PUSH2 0xB7E DUP6 DUP3 PUSH2 0xAF6 JUMP JUMPDEST DUP7 SSTORE POP PUSH2 0xBF1 JUMP JUMPDEST PUSH1 0x1F NOT DUP5 AND PUSH2 0xB94 DUP8 PUSH2 0x966 JUMP JUMPDEST SWAP7 POP PUSH2 0xB9F DUP7 PUSH2 0x966 JUMP JUMPDEST PUSH1 0x0 JUMPDEST DUP3 DUP2 LT ISZERO PUSH2 0xBC7 JUMPI DUP5 DUP10 ADD SLOAD DUP3 SSTORE PUSH1 0x1 DUP3 ADD SWAP2 POP PUSH1 0x1 DUP6 ADD SWAP5 POP PUSH1 0x20 DUP2 ADD SWAP1 POP PUSH2 0xBA2 JUMP JUMPDEST DUP7 DUP4 LT ISZERO PUSH2 0xBE4 JUMPI DUP5 DUP10 ADD SLOAD PUSH2 0xBE0 PUSH1 0x1F DUP10 AND DUP3 PUSH2 0xAD8 JUMP JUMPDEST DUP4 SSTORE POP JUMPDEST PUSH1 0x1 PUSH1 0x2 DUP9 MUL ADD DUP9 SSTORE POP POP POP JUMPDEST POP POP POP POP POP POP JUMPDEST JUMP JUMPDEST PUSH32 0x4E487B7100000000000000000000000000000000000000000000000000000000 PUSH1 0x0 MSTORE PUSH1 0x31 PUSH1 0x4 MSTORE PUSH1 0x24 PUSH1 0x0 REVERT JUMPDEST PUSH2 0xC32 DUP3 PUSH2 0x557 JUMP JUMPDEST PUSH8 0xFFFFFFFFFFFFFFFF DUP2 GT ISZERO PUSH2 0xC4B JUMPI PUSH2 0xC4A PUSH2 0x64A JUMP JUMPDEST JUMPDEST PUSH2 0xC55 DUP3 SLOAD PUSH2 0x91F JUMP JUMPDEST PUSH2 0xC60 DUP3 DUP3 DUP6 PUSH2 0xA85 JUMP JUMPDEST PUSH1 0x0 PUSH1 0x20 SWAP1 POP PUSH1 0x1F DUP4 GT PUSH1 0x1 DUP2 EQ PUSH2 0xC93 JUMPI PUSH1 0x0 DUP5 ISZERO PUSH2 0xC81 JUMPI DUP3 DUP8 ADD MLOAD SWAP1 POP JUMPDEST PUSH2 0xC8B DUP6 DUP3 PUSH2 0xAF6 JUMP JUMPDEST DUP7 SSTORE POP PUSH2 0xCF3 JUMP JUMPDEST PUSH1 0x1F NOT DUP5 AND PUSH2 0xCA1 DUP7 PUSH2 0x966 JUMP JUMPDEST PUSH1 0x0 JUMPDEST DUP3 DUP2 LT ISZERO PUSH2 0xCC9 JUMPI DUP5 DUP10 ADD MLOAD DUP3 SSTORE PUSH1 0x1 DUP3 ADD SWAP2 POP PUSH1 0x20 DUP6 ADD SWAP5 POP PUSH1 0x20 DUP2 ADD SWAP1 POP PUSH2 0xCA4 JUMP JUMPDEST DUP7 DUP4 LT ISZERO PUSH2 0xCE6 JUMPI DUP5 DUP10 ADD MLOAD PUSH2 0xCE2 PUSH1 0x1F DUP10 AND DUP3 PUSH2 0xAD8 JUMP JUMPDEST DUP4 SSTORE POP JUMPDEST PUSH1 0x1 PUSH1 0x2 DUP9 MUL ADD DUP9 SSTORE POP POP POP JUMPDEST POP POP POP POP POP POP JUMP JUMPDEST PUSH32 0x416C726561647920636F6D706C65746564000000000000000000000000000000 PUSH1 0x0 DUP3 ADD MSTORE POP JUMP JUMPDEST PUSH1 0x0 PUSH2 0xD31 PUSH1 0x11 DUP4 PUSH2 0x562 JUMP JUMPDEST SWAP2 POP PUSH2 0xD3C DUP3 PUSH2 0xCFB JUMP JUMPDEST PUSH1 0x20 DUP3 ADD SWAP1 POP SWAP2 SWAP1 POP JUMP JUMPDEST PUSH1 0x0 PUSH1 0x20 DUP3 ADD SWAP1 POP DUP2 DUP2 SUB PUSH1 0x0 DUP4 ADD MSTORE PUSH2 0xD60 DUP2 PUSH2 0xD24 JUMP JUMPDEST SWAP1 POP SWAP2 SWAP1 POP JUMP INVALID LOG2 PUSH5 0x6970667358 0x22 SLT KECCAK256 JUMP 0xDA SLOAD RETURNDATASIZE 0xBA TIMESTAMP 0xBB PUSH27 0x8275ABC0C1E5D06DB627F79E126F7BABB58B99E3DBB13B64736F PUSH13 0x634300081A0033000000000000 "
		},
		"gasEstimates": {
			"creation": {
				"codeDepositCost": "697000",
				"executionCost": "728",
				"totalCost": "697728"
			},
			"external": {
				"addNewTask(string)": "infinite",
				"deleteTask(uint256)": "infinite",
				"markAsCompleted(uint256)": "29104",
				"tasks(uint256)": "infinite"
			}
		},
		"methodIdentifiers": {
			"addNewTask(string)": "aff0e3d6",
			"deleteTask(uint256)": "560f3192",
			"markAsCompleted(uint256)": "c0a6026c",
			"tasks(uint256)": "8d977672"
		}
	},
	"abi": [
		{
			"inputs": [
				{
					"internalType": "string",
					"name": "taskDesc",
					"type": "string"
				}
			],
			"name": "addNewTask",
			"outputs": [],
			"stateMutability": "nonpayable",
			"type": "function"
		},
		{
			"inputs": [
				{
					"internalType": "uint256",
					"name": "taskId",
					"type": "uint256"
				}
			],
			"name": "deleteTask",
			"outputs": [],
			"stateMutability": "nonpayable",
			"type": "function"
		},
		{
			"inputs": [
				{
					"internalType": "uint256",
					"name": "taskId",
					"type": "uint256"
				}
			],
			"name": "markAsCompleted",
			"outputs": [],
			"stateMutability": "nonpayable",
			"type": "function"
		},
		{
			"inputs": [
				{
					"internalType": "uint256",
					"name": "",
					"type": "uint256"
				}
			],
			"name": "tasks",
			"outputs": [
				{
					"internalType": "uint256",
					"name": "id",
					"type": "uint256"
				},
				{
					"internalType": "string",
					"name": "task",
					"type": "string"
				},
				{
					"internalType": "bool",
					"name": "completed",
					"type": "bool"
				}
			],
			"stateMutability": "view",
			"type": "function"
		}
	]
}